:02000004080AE8
:1000000000000A08103B0A0800000600060005016F
:080010000402350800000000A5
:0400180004270A08A7
:10001C0009480A4908B5884205D0094A824202D0EB
:10002C00121A02F027FB0748074A0021121A02F0A5
:10003C002FFB064808BD00BF00000020743A0A08D8
:10004C007400002074000020CC050020CC0500209A
:10005C0070B501F01DFF0025054E064CA41BA4082D
:10006C00A54200D170BD56F8043B98470135F7E71F
:10007C00483A0A08683A0A0800F026B808B500F0B1
:10008C007FF8BDE8084001F0C5BE01F0D9BC01F015
:10009C00DFBC000000210C2008B5024A01F034FC42
:1000AC00FEE700BF81160A080078B0FA80F040091C
:1000BC00704701230370704710B50446006808B1FF
:1000CC0001F0C6FC204610BD1FB5144C01F0E0FF3A
:1000DC004FF4165101F0C2FF204600F061FD20469E
:1000EC0000F098FF204601F003FA204600F092FF42
:1000FC001E230122CDE90132642300220A2120466D
:10010C000093074B00F0CEFA204601F0F1F941F2D2
:10011C00883004B0BDE8104001F026BE84000020F9
:10012C00932A0A0870B500250F4C104B104EA36093
:10013C002560A580A571032001F0EEFB3246204618
:10014C000C490D4C02F07EFA2946012001F0F4FB1B
:10015C000721204600F0F6FC32462046BDE87040F0
:10016C00064902F06FBA00BF780000200000FFFFC4
:10017C0074000020C5000A08840000201D0B0A082A
:10018C007FB5514C514E204600F033FD327892B180
:10019C00204600F03FFF0121204600F0B2FC002574
:1001AC004FF001132046C4E90453494901F06BFD9B
:1001BC00204601F09DF9444800F034FD38B3424824
:1001CC0000F028FF0121404800F09BFC4FF0011388
:1001DC00404A4149B2F90020B1F900103A48636134
:1001EC00012300F0ADFD64251E2301200022CDE982
:1001FC0001300A21394B3448009500F053FA32484B
:10020C0001F076F900232846337001F0ADFD2E483D
:10021C0000F012FD38B32C4800F0FCFE01212A48F6
:10022C0000F06FFC4FF001132A4A2B49B2F9002061
:10023C00B1F9001024486361012300F081FD6425AD
:10024C001E2301210022CDE901311F48244B0A2134
:10025C00009500F027FA1C4801F04AF900232846C3
:10026C00337001F081FD184800F0F0FC50B31648D3
:10027C0000F0D0FE0121144800F043FC4FF00113B4
:10028C00144A15496361B2F900200123B1F9001039
:10029C000D4800F055FD64241E2301220A21CDE9EE
:1002AC000132094800220F4B009400F0FBF906487C
:1002BC0001F01EF900232046337004B0BDE87040F5
:1002CC0001F052BD04B070BD84000020000000207D
:1002DC0018270A080800002004000020332C0A0804
:1002EC0053270A08F3280A08704710B50446102152
:1002FC0002F0ADF9204610BD10B50446806808B177
:10030C0001F0E0F9204610BD0EB403B503AB53F871
:10031C00042B0021019301F0DDFC02B05DF804EB2D
:10032C0003B0704773B5044622790846A36832B10E
:10033C00A3B90B4902B0BDE8704001F091BC094A69
:10034C00267B094D0949647B012E18BF2946CDE94E
:10035C0000140749FFF7D8FF02B070BD054AEFE75C
:10036C00E42D0A08DB2D0A08E02D0A08DC2D0A080A
:10037C00FA2D0A08D32D0A082DE9F04F1F4685B037
:10038C00BDF93880A7EB010AA8EB0209B9F1000FFF
:10039C00B8BFC9F10009BAF1000FB8BFCAF1000A21
:1003AC00D14583460C461646BDF83C3004DD3A4632
:1003BC00344647460E469046BC4205DD324646461C
:1003CC00904622463C4617463A1B91B20091A8EB48
:1003DC0006010029B8BF4942C2F3C035019111B2E0
:1003EC004645B4BF01224FF0FF320D446D1002920E
:1003FC00BC421CDCDBF80020D145D2F81880C7BF0A
:10040C00314622463246214603935846C047019A4C
:10041C00039BAD1AA9B22DB2002D05DA029A16442F
:10042C00009A36B255182DB2013424B2E0E705B06B
:10043C00BDE8F08F704710B404682469A44610BC62
:10044C00604730B4BDF8085004680295A46BA4460C
:10045C0030BC604730B4BDF8085004680295E46BBA
:10046C00A44630BC604770B4BDF90C50BDF81060A8
:10047C000468CDE90356246CA44670BC60472DE992
:10048C00F3411C46164605460F460368013CBDF871
:10049C0020805B693444984724B22B68CDF80480E3
:1004AC00009428469C6A32463B463946A04728466B
:1004BC002B68DB6A02B0BDE8F04118472DE9F34127
:1004CC00174604461D460E460368BDF820805B693E
:1004DC009847CDE9007822686B1E33442046956A14
:1004EC0031463A461BB2A84720462368DB6A02B065
:1004FC00BDE8F04118472DE9F3471E4603680C464A
:10050C005B6905461746BDF92880BDF82C909847C5
:10051C002644B4422B680BDACDF800902146D3F870
:10052C0020A03A46434628460134D04724B2F0E78F
:10053C002846DB6A02B0BDE8F047184713B50191B5
:10054C00B0F90E1002680091146C0022B0F90C3056
:10055C001146A04702B010BD2DE9F34704460F46E3
:10056C0016461D460368BDF82C805B69BDF92890C2
:10057C0098472368CDF80080324639462046D3F898
:10058C0024A02B46D047236809F1FF32CDF8008018
:10059C00324439462046D3F824A012B22B46D04719
:1005AC002368CDF80080324639462046D3F820A087
:1005BC004B46D047013D2368E919CDF80080204611
:1005CC001D6A32464B4609B2A84720462368DB6AAF
:1005DC0002B0BDE8F047184770472DE9F743994240
:1005EC00164680460D461C46BDF92870BDF82C9069
:1005FC00026812D1BE42C2BF33463E461F46CDF8FA
:10060C0028907B1C946B9B1B324629464046A44683
:10061C001BB203B0BDE8F0436047BE420AD1994219
:10062C00C2BF0B4625461C46CDF82890631C5B1BAD
:10063C00D46BE9E753699847CDE90079D8F80030D5
:10064C0040469F6A324623462946B8474046D8F86A
:10065C000030DB6A03B0BDE8F043184701F0030338
:10066C00B0F90A208376B0F90830C90759BF8381E5
:10067C00C2818281C381704730B5018100248181A0
:10068C004FF0FF31054D4281C281054A4460C0E9FB
:10069C000512056004610477046230BD20330A083A
:1006AC00010100012DE9F04F0026354689B0049375
:1006BC00BDF94C30BDF9488005930368CDE90212B1
:1006CC005B690446BDF850A0984718F1070348BF72
:1006DC0008F10E034FEAE30B0196039B019A05996F
:1006EC009A18BDF9043012B2994227DD4FF0000977
:1006FC00049B334406930FFA89F398451FFA89F14A
:10070C0017DD480705BF0698DB106D00C55C18BFE8
:10071C00EDB22B060AD5029B07921944236820469A
:10072C009B6909B21F465346B847079A09F101095C
:10073C00E1E7019B5E4401330193CEE72046236839
:10074C00DB6A09B0BDE8F04F184700002DE9F04F07
:10075C0091B017461E46026ABDF868308246BDF855
:10076C006C809DF870509DF8744005910293002A9E
:10077C0040F0B980B0F90C308B4240F33C81B0F9B9
:10078C000E30BB4240F33781062303FB0513002BCD
:10079C0040F3318107EBC403002B40F32C81037F22
:1007AC001BB9AF2E84BF0136F6B2DAF800305046D2
:1007BC005B69984705230993002304938F4B06EB41
:1007CC00860633440C93BBB206930C9B049ABDF87B
:1007DC0010609B5C4FF000090793ABB20B93BDF814
:1007EC001430039305FB06331BB2089308230A93BA
:1007FC00039B1E4436B2079ADAF80030D2074DD567
:10080C00012D06991FFA89F23BD1012C39D1D3F86D
:10081C0018B0029B0A443146504612B2D847079B87
:10082C0009F101095B0807930A9B4FFA89F9013B0F
:10083C0013F0FF030A93DED1049B01335BB20493E4
:10084C00099B013B13F0FF030993BED1029B434567
:10085C000FD0012DDAF8003034D1012C32D10399AC
:10086C00CDF8008005311C6A3A460823504609B27F
:10087C00A0475046DAF80030DB6A11B0BDE8F04F03
:10088C00184704FB0212029901910094D3F81CB092
:10089C0050462B46089912B2D847C0E7029A4245F7
:1008AC00BDD0012D06991FFA89F206D1012C04D175
:1008BC00D3F818B00A444346ADE704FB0212CDF856
:1008CC000480E2E70B9AE40002EB8201039ACDF874
:1008DC0004800A4411460094DC693A462B46504683
:1008EC0009B2A047C5E7137A5168F61A1268F6B236
:1008FC000E9231F8362001EBC60304929A78012D42
:10090C000892DA7893F906B00C9293F905200992C3
:10091C0001D8012C53D9BDF9243007930FFA8BF36E
:10092C0006934FF00008C146DAF8003050465B6978
:10093C009847BBB20A935B44CDF80C800F930C9B89
:10094C00039A9A4295D2069B002713440A9A03995C
:10095C0003FB04231BB20B9343460F9A02EB010BD0
:10096C000FFA8BFB089A97423CD25A1CD2B25B0707
:10097C000D9207D1049B04990E9A01339BB212F885
:10098C000190049319F0800F11D0012DDAF800308A
:10099C00BDF8141017D1012C15D1099A9B6911447B
:1009AC0039441E465A465046029B09B2B0474FEA9C
:1009BC00490901370D9B5FFA89F9FFB2D2E7002391
:1009CC00CDE90633ADE7079A50463A4402FB0511D0
:1009DC00029A09B2CDE90042DB690B9A1E462B46FE
:1009EC00B047E4E7039E089B01369844F3B25FFAE4
:1009FC0088F80393A3E711B0BDE8F08F172E0A080F
:100A0C00F0B5026A04460B4685B0002A34D10A2997
:100A1C0008D1438A0282427E03EBC2036382012027
:100A2C0005B0F0BD0D29FAD0E17E007E657E71B176
:100A3C000621B4F9106001FB0061B4F90C60B142FD
:100A4C00C1BFB4F91210228201EBC5026282E28AA4
:100A5C00CDE902050192A28A20460092B4F9101049
:100A6C00B4F91220FFF772FE237E228A03EB4303B4
:100A7C0002EB43032382D2E70A2907D10023038226
:100A8C00937A417E428A01FB0323C7E70D29C6D026
:100A9C00157AA942C3D3517A9942C0D351685D1BD0
:100AAC00EDB201EBC505AF782FB3E97819B3E17E50
:100ABC00007E667E91B195F905103944B4F9107039
:100ACC0000FB0171B4F90C70B94207DD00272782D5
:100ADC00B4F91210927A02FB06126282E28ACDE914
:100AEC0002060192A28A20460092B4F91010B4F9C1
:100AFC001220FFF72BFE2979237E228A01FB032388
:100B0C00B8E7012938BF0121017641767047000012
:100B1C0010B5064B04460360006D08B100F0C2FD31
:100B2C00204600F0F7F8204610BD00BF78330A08C5
:100B3C0010B50446FFF7ECFF2046702101F087FD4D
:100B4C00204610BD30B585B004460D4601F052FD6F
:100B5C00104A11490346CDE901214FF0FF328021A3
:100B6C0000922046202200F063F90C4B04F158004F
:100B7C0023600023C4E9143500F072F804F160001E
:100B8C0000F06EF804F1680000F06AF8204605B039
:100B9C0030BD00BF801A0600A086010078330A0819
:100BAC0013B50446503000F075FD636DD90705D5BB
:100BBC000222042104F1580000F066F8636D9A07D4
:100BCC0005D50022032104F1600000F05DF8636D8F
:100BDC005B0705D5022204F16800114600F054F8B9
:100BEC0001233C2202212046009300F021FA02B09E
:100BFC0010BD10B5436D0446D90702D5583000F02E
:100C0C0050F8636D9A0703D504F1600000F049F8C1
:100C1C00636D5B0705D504F16800BDE8104000F07A
:100C2C0040B810BD436D024613F0010003D002F131
:100C3C00580000F066B87047436D024613F002008E
:100C4C0003D002F1600000F05CB87047436D0246BF
:100C5C0013F0040003D002F1680000F052B87047A2
:100C6C0000210A22C0E900127047002310B5044687
:100C7C00C171837188B201F079FC08B10323A371AF
:100C8C0000F000FD206010BD38B50C46054611463D
:100C9C00A0B201F041FC21462846BDE83840FFF7E0
:100CAC00E4BF38B50446C07901F060FC003818BFC9
:100CBC000120A57925F00803C5F340058542A371F1
:100CCC000AD000F0DFFCA379206083F00203A3714B
:100CDC00A079C0F3C00038BD00F0D4FC2368C01A62
:100CEC00A3889842F4D3A37903F00103AB42EFD06D
:100CFC0000F0C8FCA379206083F0010343F00803E3
:100D0C00E5E7807900F00900A0F10803584258414A
:100D1C007047000010B5044B04460360C06A08B16C
:100D2C0000F096FE204610BD84380A0810B5044623
:100D3C00FFF7F0FF2046502101F089FC204610BD42
:100D4C00002910B550DBB0F90C408C424CDD002A68
:100D5C004ADBB0F90E40944246DD847E022C22D050
:100D6C00032C29D0012C04D1D243048914440A4603
:100D7C0021B2012B26D0022B37D0002B34D11346B5
:100D8C00002AB0F90840B8BFD31D43F3CF0304FBCE
:100D9C0003110123C06A02F007029340425C22EA6D
:100DAC000302425420E0C943D243048921444489BC
:100DBC0009B2224412B2DCE7C94344890C441146FF
:100DCC0022B2D6E71346002AB0F90840B8BFD31DAB
:100DDC0043F3CF0304FB0311C36A02F007000122A3
:100DEC008240585C02435A5410BD1346002AB0F995
:100DFC000840B8BFD31D43F3CF0304FB03110123F9
:100E0C00C06A02F0070203FA02F2435C5A40C8E7D8
:100E1C0010B5044690F93600012180B201F08DFB2B
:100E2C00606A18B1BDE8104000F04ABE10BD000069
:100E3C0070B504461D460026FFF71EFC114B66627A
:100E4C00236015B901F0D6FB0546FF2384F8333037
:100E5C0084F836309DF910304FF6FF7284F8373035
:100E6C00094B2046A363012384F83C30059BC4E95D
:100E7C000A56A364069BA2862664A4F84460E36425
:100E8C0070BD00BF84380A08D0330A08F8B5044690
:100E9C00806A0D4690B194F9301001F025FAA06AE1
:100EAC00002103689B689847A06A294603689B68E1
:100EBC009847A06ABDE8F84001F01DBA94F93530A6
:100ECC00014698B201F039FB606A20B12946BDE8B1
:100EDC00F84000F07BBE0826802794F9330005EA21
:100EEC00070180B201F029FB94F93400012180B292
:100EFC0001F023FB94F93400002180B201F01DFBBA
:100F0C00013E4FEA5707E8D1F8BD38B50446806A70
:100F1C000D4680B1A16C01F0D9F9002D204614BF0B
:100F2C00A721A621FFF7B2FFA06A88B1E16CBDE84A
:100F3C00384001F0CBB9606A18B104F1380100F007
:100F4C00D9FD94F93600002180B201F0F6FAE4E7FD
:100F5C002046BDE83840FFF75BBF2DE9F843044657
:100F6C00806A0D468F1840B394F9301001F0BCF92B
:100F7C00A06A0021036801269B689847BD42A06ABD
:100F8C0017D01F2E0CD901F0B6F994F93010A06AC5
:100F9C0001F0AAF9A06A0021036801269B68984712
:100FAC00A06A15F8011B036801369B689847F6B2D6
:100FBC00E4E7BDE8F84301F09EB994F935300146F9
:100FCC0098B201F0BAFAAF4222D0606A15F8019BD0
:100FDC0018B1494600F0FAFDF5E708264FF08008F5
:100FEC0094F9330009EA080180B201F0A6FA94F9E9
:100FFC003400012180B201F0A0FA94F934000021F0
:10100C0080B201F09AFA013E4FEA5808E8D1DAE7CB
:10101C00BDE8F883B0F90A300021DA1D48BF03F1AE
:10102C000E02B0F90830D2105A43C06A01F030BB3E
:10103C002DE9FF411E46C36A04460F4615469DF82E
:10104C002880B3B12046FFF7E5FFB4F90A00B4F9E4
:10105C00081020281FDC20230122CDE90132732344
:10106C0020387339009300EBD070894B01EBD171B0
:10107C001FE0B0F90A30D81D48BF03F10E00B4F9D7
:10108C000830C010584300F0DBFCE0620028D9D1D6
:10109C0004B0BDE8F08140234FF0010CCDE9013CD8
:1010AC0052234038523900937A4B00EBD07001EB4D
:1010BC00D17140F34F0241F34F012046FFF7F2FA92
:1010CC00A06A84F83170002878D0002D74D1B4F95E
:1010DC000A30202B0CBF3C253D2584F83050B8F14C
:1010EC00000F01D001F0F6F8FEB194F9370000289A
:1010FC001BDB012180B201F00FFA94F937000121BA
:10110C0080B201F01AFA012000F02EFE94F937009B
:10111C00002180B201F011FA0A2000F025FE94F9AA
:10112C003700012180B201F008FAA06A002874D0BF
:10113C00A16C01F0CBF8042220465749FFF70DFFB4
:10114C00A17A20460139C9B2FFF7A0FE5349042207
:10115C002046FFF702FF94F931302046012B0CBFDB
:10116C0010211421FFF792FE042220464C49FFF770
:10117C00F4FEA3684B4A93425CD1042220464A49B0
:10118C00FFF7EBFED9212046FFF780FE94F93130B2
:10119C002046012B0CBF2221F121FFF777FE2046C0
:1011AC0006224249FFF7D9FEA06A002863D0E16C01
:1011BC0001F08CF801206BE76DB28EE794F93500E5
:1011CC00012180B201F0A8F994F93600012180B216
:1011DC0001F0A2F994F93600012180B201F0ADF9C9
:1011EC00656A3DB1B8F1000F3FF47EAF284600F0C0
:1011FC0059FC79E794F93300012180B201F08CF9A4
:10120C0094F93400012180B201F086F994F934008C
:10121C00294680B201F091F966E7606A18B104F1D1
:10122C00380100F067FC94F93600002180B201F01F
:10123C0084F980E71E4A93420ED11E4903222046B0
:10124C00FFF78BFE94F93130012B0CBF9F21CF217E
:10125C002046FFF71BFE95E7174A934292D1174998
:10126C0003222046FFF779FE94F93130012B0CBF95
:10127C001021AF21ECE794F93600012180B201F086
:10128C005CF9606A002895D000F01AFC92E700BF68
:10129C009C360A08DC330A08E4380A08E8380A08DD
:1012AC00EC380A0880002000F6380A08F0380A08E2
:1012BC0080004000FA380A0860001000FD380A0867
:1012CC0070B5002ABDF810403FDBB0F90A509542CA
:1012DC003BDD0029BEBF5B1800211BB2B0F90860D2
:1012EC005D18B542C4BF731A1BB2002B2DDDD5108F
:1012FC0006FB0511C06A012C014402F007004FF0F7
:10130C00010202FA00F2D2B216D0022C0BD0E4B9D0
:10131C00D2430B44D2B2994217D011F8010B1040B2
:10132C0001F8010CF7E70B4499420ED011F8010BB0
:10133C00504001F8010CF7E70B44994205D011F825
:10134C00010B104301F8010CF7E770BDF0B5002953
:10135C00BDF8146076DBB0F90850A94272DA002AA5
:10136C00BEBFD21813B20022B0F90A40D718A74258
:10137C00C4BFA31A1BB2002B64DDC2F3C40405FB6B
:10138C000411C76A12F00702DBB207EB010424D088
:10139C00C2F10802D2B2934238BF4FF0FF0C2B4D72
:1013AC0038BFA2EB030EAD5C3CBF4CFA0EFC0CEA52
:1013BC000505012E07D0022E2ED04EB917F801C00C
:1013CC002CEA050503E017F801C045EA0C057D542D
:1013DC00934237D3B0F908100C449A1AD2B2072AA8
:1013EC000ED9022E1DD113462178083BC94321701A
:1013FC00B0F90810DBB2072B0C44F5D802F0070249
:10140C0002B3134B012E9B5C19D0022E1BD0CEB90C
:10141C00227822EA030314E017F801C085EA0C05D0
:10142C00D5E7002E14BFFF25002513462570083B79
:10143C00B0F90810DBB2072B0C44F7D8DEE72278A2
:10144C0013432370F0BD22785340FAE7D4380A08CE
:10145C00DC380A0830B41446827EBDF80850022AE3
:10146C000DD0032A18D0012A11D1E4430289144467
:10147C0024B20A460295214630BCFFF767BFE4430D
:10148C0042891444CA18018924B2891A09B2224625
:10149C00029530BCFFF714BFCA184189891A09B2EA
:1014AC00E7E730B41446827EBDF80850022A0DD00E
:1014BC00032A18D0012A11D1E2180489A41A24B2E3
:1014CC000A460295214630BCFFF7FABEC943028991
:1014DC001144E218448909B2A41A24B22246029596
:1014EC0030BCFFF733BFC9434289114409B2E7E767
:1014FC002DE9F8430446806A002841D0A16C00F025
:10150C00E5FE052220464649FFF727FD217A2046B5
:10151C000139C9B2FFF7BAFCD4E90A06B4F90A30AA
:10152C00DD1D48BF03F10E052389ED105D43ADB2FF
:10153C00354400283AD094F9301000F0D5FEA06A5A
:10154C004021036801279B689847AE42A06A24D0CB
:10155C001F2F0CD900F0CFFE94F93010A06A00F0C8
:10156C00C3FEA06A4021036801279B689847A06AC4
:10157C0016F8011B036801379B689847FFB2E4E734
:10158C00606A18B104F1380100F0B4FA94F936002D
:10159C00002180B200F0D1FFB3E700F0ACFEA06AEE
:1015AC0078B3E16CBDE8F84300F090BE94F93500D7
:1015BC00012180B200F0C1FFAE42F0D0606A16F893
:1015CC00019B18B1494600F001FBF5E708274FF0E5
:1015DC00800894F9330009EA080180B200F0ADFFED
:1015EC0094F93400012180B200F0A7FF94F9340083
:1015FC00002180B200F0A1FF013F4FEA5808E8D16A
:10160C00DAE794F93600012180B200F096FF606AA7
:10161C0018B1BDE8F84300F053BABDE8F88300BF39
:10162C0000390A0808B5024B1B689B68019308BD7A
:10163C00B001060808B5024B1B68DB68019308BDB6
:10164C00B001060808B5024B1B681B69019308BD65
:10165C00B001060808B5024B1B685B69019308BD15
:10166C00B001060808B5024B1B685B68019308BD06
:10167C009C01060808B5024B1B68DB68019308BD8A
:10168C009C01060808B5024B1B685B69019308BDF9
:10169C009C01060808B5024B1B681B6B019308BD27
:1016AC00D001060808B5024B1B685B6B019308BDA3
:1016BC00D001060808B5024B1B685B6C019308BD92
:1016CC00D001060808B5024B1B689B6C019308BD42
:1016DC00D001060808B5024B1B68DB6C019308BDF2
:1016EC00D001060808B5024B1B685B6D019308BD61
:1016FC00D001060808B5024B1B689B69019308BD15
:10170C00C401060808B5024B1B685B6A019308BD4F
:10171C00C401060808B5024B1B689B6A019308BDFF
:10172C00C401060808B5024B1B68DB6A019308BDAF
:10173C00C401060808B5024B1B681B6B019308BD5E
:10174C00C401060808B5024B1B685B6B019308BD0E
:10175C00C401060808B5024B1B689B6B019308BDBE
:10176C00C401060808B5024B1B681B6C019308BD2D
:10177C00C401060808B5024B1B681B6C019308BD1D
:10178C00AC01060808B5024B1B68DB6C019308BD65
:10179C00AC01060808B5024B1B689B6D019308BD94
:1017AC00AC01060808B5024B1B68DB6D019308BD44
:1017BC00AC01060808B5024B1B681B6E019308BDF3
:1017CC00AC01060808B5024B1B685B6E019308BDA3
:1017DC00AC01060808B5024B1B689B6E019308BD53
:1017EC00AC01060808B5024B1B68DB6E019308BD03
:1017FC00AC01060808B5024B1B681B6F019308BDB2
:10180C00AC01060808B5024B1B685B6F019308BD61
:10181C00AC01060808B5034B1B68D3F88030019364
:10182C0008BD0000AC01060808B5024B1B681B681C
:10183C00019308BDB401060808B5024B1B685B692F
:10184C00019308BDB401060808B5024B1B68DB699F
:10185C00019308BDB401060808B5024B1B681B6A4E
:10186C00019308BDB401060808B5024B1B685B6AFE
:10187C00019308BDB401060808B5024B1B68DB6B6D
:10188C00019308BDB401060808B5024B1B681B6820
:10189C00019308BDD801060808B5024B1B685B68AC
:1018AC00019308BDD801060808B5024B1B681B69DB
:1018BC00019308BDD801060808B5024B1B685B698B
:1018CC00019308BDD801060808B5024B1B689B693B
:1018DC00019308BDD801060808B5024B1B68DB69EB
:1018EC00019308BDD801060808B5024B1B681B6A9A
:1018FC00019308BDD801060808B5024B1B689B6C08
:10190C00019308BDC001060808B5024B1B685B6B50
:10191C00019308BDA801020808B5024B1B685B685F
:10192C00019308BDA401060808B5024B1B685B694E
:10193C00019308BDA401060808B5024B1B68DB6ABD
:10194C00019308BDA401060808B5034B1B68D3F826
:10195C009030019308BD0000A401060808B5034BA4
:10196C001B68D3F89C30019308BD0000A401060845
:10197C0008B5024B1B685B68019308BDC8010608DB
:10198C0008B5024B1B689B68019308BDC80106088B
:10199C0008B5024B1B68DB68019308BDC80106083B
:1019AC0008B5024B1B681B69019308BDC8010608EA
:1019BC0008B5024B1B685B69019308BDC80106089A
:1019CC0008B5024B1B689B69019308BDC80106084A
:1019DC0008B5024B1B68DB69019308BDC8010608FA
:1019EC0008B5024B1B681B6A019308BDC8010608A9
:1019FC0008B5024B1B681B6B019308BDC801060898
:101A0C0008B5024B1B685B6B019308BDC801060847
:101A1C0008B5024B1B681B6C019308BDC801060876
:101A2C0008B5024B1B685B6C019308BDC801060826
:101A3C0008B5024B1B68DB6B019308BDCC01060893
:101A4C0008B5024B1B681B68019308BDA001060872
:101A5C0008B5024B1B685B68019308BDA001060822
:101A6C0008B5024B1B685B6A019308BDA001060810
:101A7C0008B5024B1B685B6C019308BDA0010608FE
:101A8C008068FFF72FBE70B5002604460D4640F85F
:101A9C00086FFFF70FFE28462570FFF7D5FE20468E
:101AAC00666070BD10B504468068FFF713FE2078A1
:101ABC004FF6FF71FFF7B8FE2046FFF7E1FF10BDB0
:101ACC0008B5FFF7DDFF08BD30B5002440081860ED
:101ADC001868E5B2884206D90134082C02D04008B7
:101AEC001860F5E70725024B5B5D137030BD00BF36
:101AFC0005390A082DE9F04306468FB080680C467C
:101B0C00FFF7E8FD1422002109A8357800F0C0FD8C
:101B1C000B230022284609A9ADF82430FFF7A4FEB8
:101B2C009DF82D3013B19DF82C5055B1002701258F
:101B3C00B946B84623795DB1C3B100200FB0BDE8FA
:101B4C00F083DDF830809DF834909DF83570F1E726
:101B5C00002B35D1A368434508D18DF820908DF822
:101B6C002170BDF82020A3899A42E6D00023A168F9
:101B7C008DF80F300A9804AB0DF10F02FFF7A4FF9C
:101B8C00217985B989B9A36843450ED38DF8209086
:101B9C008DF82170BDF82020A3899A4205D1049BB1
:101BAC00434502D1C9E70029F9D100230193637B96
:101BBC009DF80F200093237B3078FFF75DFEBCE788
:101BCC002B462A460121CDE90055F5E708B50078EA
:101BDC00FFF732FEC0B208BD0222002010B5084B40
:101BEC00084C1A60084B2060A080A071A360FFF71E
:101BFC0093FE2046BDE81040044A054900F022BD82
:101C0C0010010020040100200000FFFF74000020E0
:101C1C00C5000A08F8B506460D4600248F18BD42CB
:101C2C000CD0336830469B6815F8011B9847031E8F
:101C3C0001DB1C44F3E7002C08BF1C462046F8BD12
:101C4C0070B505460C46084649B100F04DFD2B68B1
:101C5C00024621462846BDE87040DB68184770BD37
:101C6C0008B5FFF7EDFF08BD03689B68184738B54A
:101C7C000D210546FFF7F8FF0A2104462846FFF719
:101C8C00F3FF204438BD38B50546FFF7D9FF0446AD
:101C9C002846FFF7ECFF204438BD0023012A98BFEB
:101CAC000A2230B58BB00C468DF8243009A9254694
:101CBC00B4FBF2F404FB1253DBB2092B94BF3033A8
:101CCC003733DBB2AA4201F8013DF0D9FFF7B8FF78
:101CDC000BB030BD2DE9F04186B000AF05460E4685
:101CEC00381D142114463B60FFF7BAFE13280ED89A
:101CFC002846391DFFF7A4FF04461EB12846FFF7FE
:101D0C00B6FF044420461837BD46BDE8F08100F10B
:101D1C00080323F00703E846ADEB030D2246411CF4
:101D2C003B686846FFF79CFE69462846FFF788FF2C
:101D3C000446C546E1E7002340681A461946FFF7FA
:101D4C0037BE0000014B024A1A6070471401002094
:101D5C000D390A08024B1A68024B1A60704700BF13
:101D6C000C000020180100200021FFF7DDBD10B58C
:101D7C008368044613B1032201469847204610BDE0
:101D8C0010B50446FFF7F3FF204610BD00230348AF
:101D9C00034A0449836000F055BC00BF1C010020BD
:101DAC00740000208D1D0A08014B1860704700BF9D
:101DBC001000002008B5134B43B100F069F903681B
:101DCC001B699847002801DDAFF300800E4B43B12F
:101DDC0000F016FA03681B699847002801DDAFF381
:101DEC0000800A4B0BB1AFF30080094B43B100F0FC
:101DFC008DF903681B699847002801DDAFF300805B
:101E0C0008BD00BF00000000000000000000000042
:101E1C000000000008B5FFF7CDFFFFF733FC014BC6
:101E2C00186008BD980500200248034A0349121A9D
:101E3C0000F020BC0040024004400240703A0A0806
:101E4C00002307B51A466FF077010093FFF786FD64
:101E5C0003B05DF804FB000007B543880A2B08D0DB
:101E6C00502B0BD1094B1B684BB103B05DF804EB45
:101E7C001847FFF7E5FF03B05DF804FB00231A4693
:101E8C006FF077010093FFF769FDF4E73001002054
:101E9C0038B5124C00211248FFF7EAFD114D2368AA
:101EAC00AB420CBF012200220F4B1A7002D0FFF77D
:101EBC00BBFF2560FFF7D6FB044600F0F1FB0B4B94
:101ECC0013B12046AFF3008000210848FFF7B0FDA6
:101EDC00BDE8384000210648FFF736BD00400240FF
:101EEC00B51D0A081E1C279A2C01002000000000BA
:101EFC00651E0A08704710B50446182100F0A7FBB0
:101F0C00204610BDF8B50E46002400F10807051D4B
:101F1C0017F8011D0A223046FFF7BFFEAF420444FA
:101F2C0001D12046F8BD002CF2D02E213046FFF70F
:101F3C009BFE0444ECE7000010B50446044B112250
:101F4C00002140F8043B00F0A3FB204610BD00BF6D
:101F5C0038390A080346074A10B543F8042B01F137
:101F6C00100251F8044B914243F8044BF9D10A7812
:101F7C001A7010BD38390A08024AC0E9002104223F
:101F8C000275704738390A0810B59DF8084044EAC4
:101F9C000324042344EA024444EA016444600375C4
:101FAC0010BD000037B5044D05609DF81850009524
:101FBC00FFF7EAFF03B030BD38390A0841747047A7
:101FCC00704708B50021007CFFF77EFC40EAE0700A
:101FDC0008BD08B50121007CFFF776FC40EAE070F3
:101FEC0008BD08B5007CFFF767FC20EAE07008BD6F
:101FFC0008B5007CFFF758FC20EAE07008BD38B546
:10200C000446007C0D46FFF757FC002801DC607C81
:10201C0028B12946207CFFF75FFC20EAE07038BD30
:10202C00007CFFF761BC10B50446142100F00FFBD7
:10203C00204610BD10B54FF47A73044608460021B3
:10204C00C4E90113044B207423600123114663740B
:10205C00FFF71AFC204610BD4C390A080022007C00
:10206C00FFF71ABC10B504461422002100F010FB37
:10207C00054B20466360054BE36040F2011323815E
:10208C008123238210BD00BF640100206502002063
:10209C0030B50F4D87B001A8FFF7E4FF2978BFF3E7
:1020AC005B8F11F0010410D12846FDF7FDFF60B1E4
:1020BC00214601AA0748FFF7BDFF2846FDF7F9FFA7
:1020CC00054A0649034800F0BDFA024807B030BD86
:1020DC00340100203C01002074000020CD1F0A08B0
:1020EC0010B504461422002100F0D2FA054B20460C
:1020FC006360054BE36040F201132381812323824B
:10210C0010BD00BFE6020020E703002010B50F4C05
:10211C0086B001A8FFF7E4FF2378BFF35B8FDB07E2
:10212C0010D42046FDF7C0FF60B1012101AA084878
:10213C00FFF780FF2046FDF7BCFF064A064904481E
:10214C0000F080FA024806B010BD00BF3801002034
:10215C005001002074000020CD1F0A087047417404
:10216C00704708B5007CFFF7FDFA20EAE07008BD67
:10217C0008B5007CFFF7CEFA20EAE07008BD08B580
:10218C00007CFFF7D7FA40EAE07008BD08B5007C88
:10219C00FFF7C8FA40EAE07008BD007CFFF7D2BA3E
:1021AC0070B5467C04460D462EB12946207CBDE810
:1021BC007040FFF7A7BA007CFFF7D4FA0028F4DCD4
:1021CC00304670BD10B50446142100F040FA20468C
:1021DC0010BD00004FF0000C10B504460846114627
:1021EC004FF47A72C4E901C2044A207422600122BD
:1021FC0062741A46FFF77EFA204610BD7C390A0835
:10220C0038B50D4D2978BFF35B8F11F0010411D156
:10221C002846FDF749FF68B12146084A084B094892
:10222C00FFF7D8FF2846FDF744FF074A0749054842
:10223C0000F008FA034838BD680400206C04002044
:10224C00F0040020740500207400002069210A08A5
:10225C007047F8B5064615460C468F18BC4206D09A
:10226C00336830469B6814F8011B9847F6E72846FC
:10227C00F8BD0022007CFFF79DBA0021007CFFF71F
:10228C00A1BA0021007CFFF7A5BA0021007CFFF762
:10229C00A9BA0021007CFFF7ADBA10B50446142191
:1022AC0000F0D5F9204610BD10B54FF47A730446F2
:1022BC0008460021C4E90113034B11462360207426
:1022CC00FFF7A8FA204610BDAC390A080022007CA2
:1022DC00FFF750BA0023007C1A461946FFF752BA92
:1022EC000022007CFFF756BAC9B2FFF7F9BF0022F3
:1022FC00007CFFF757BA0121FFF7F9BF00224068B5
:10230C001146FFF74DBBF0B5154689B011220E46AC
:10231C000446002103A800F0BBF9284600F0E4F9BC
:10232C00002781B273682846009703AAFFF7E4FAE6
:10233C0030B139462046FFF71FFE204609B0F0BDEC
:10234C00204603A9FFF706FEF7E700224068114676
:10235C00FFF746BB002240681146FFF751BB002235
:10236C004068FFF745BB0022406881F00101FFF790
:10237C002FBB002340681A461946FFF721BB0022E9
:10238C0040681146FFF7FCBA002202214068FFF7B3
:10239C00FFBA002340681A46FFF7EABA0422024B40
:1023AC005A60024A1A60704788050020D4390A081E
:1023BC00002340681A46FFF7DBBA0022022140686E
:1023CC00FFF7E6BA002240681146FFF7D9BA00229F
:1023DC0040681146FFF7E4BA002340681A461946D4
:1023EC00FFF7E6BA002340681A461946FFF7E8BA29
:1023FC0000214068FFF70CBB00214068FFF710BBC1
:10240C000022406881F00101FFF7E2BA0022406827
:10241C00FFF7EEBA002240681146FFF7F1BA00222E
:10242C0040681146FFF7DCBA70B515468EB004460D
:10243C0008A8FFF781FD1122002103A800F028F95C
:10244C000026284600F050F90A4B009681B25B68D2
:10245C00284603AAFFF750FA30B131462046FFF761
:10246C008BFD20460EB070BD204603A9FFF772FD10
:10247C00F7E700BF88050020024B034A1A600022D0
:10248C005A60704790050020103A0A08172870B55A
:10249C00044601D9002070BDA0F10D03022B0BD90D
:1024AC00012826D800F0A6F80021007CFFF7AAF935
:1024BC0080F00100C0B2EEE7134E3178BFF35B8FB2
:1024CC0011F001050FD13046FDF7EEFD58B129464C
:1024DC000E48FFF7D8FA3046FDF7EBFD0C4A0D49D4
:1024EC000A4800F0AFF8094B1878FFF7B5F9002847
:1024FC00D0D1123C012C05D8FFF782FE007CFFF7EF
:10250C0029F9D5E70120C6E7F4000020F8000020E7
:10251C007400002005030A08172838B504460D4638
:10252C000AD8FF2908D0FFF7B1FF28B12946204669
:10253C00BDE83840FFF776B838BD38B504460D46CF
:10254C00FFF778F8FF2810D0062804D84D2323FA7B
:10255C0000F0C30709D42046FFF798FF28B129469D
:10256C002046BDE83840FFF76DB838BD10B50446BD
:10257C00FFF760F8031FDBB2012B08D92046FFF7E9
:10258C0085FF20B12046BDE81040FFF763B800205E
:10259C0010BD0000002313B5074C1A4619462046FF
:1025AC000093FFF7FFFC2046044A054902B0BDE842
:1025BC00104000F047B800BF9C05002074000020BC
:1025CC00011F0A08002370B5202543801423084EF0
:1025DC0004460380314685600561284600F039F8D1
:1025EC0031466060284600F034F8E060204670BD4B
:1025FC00443A0A0830B50F4D87B02978BFF35B8F8A
:10260C0011F0010413D12846FDF74EFD78B101A855
:10261C00FFF7D8FF214601AA0748FFF745FE2846D9
:10262C00FDF747FD054A0649034800F00BF8024840
:10263C0007B030BDB4050020B805002074000020A0
:10264C005D220A080B460146184600F005B8FDF756
:10265C001EBDFDF71ABD000010B504460448134614
:10266C0020B10A4602202146AFF3008010BD00BF06
:10267C00000000000A44914200F1FF3300D1704782
:10268C0010B511F8014B914203F8014FF9D110BD6F
:10269C0003460244934200D1704703F8011BF9E74B
:1026AC0038B50D4B04461D68AB6B7BB91820FFF792
:1026BC00C7F90A4A0A4BA863C0E90023094B012257
:1026CC0083600B2383810023C0E904230022AB6BBE
:1026DC001C615A6138BD00BF100000200E33CDAB19
:1026EC0034126DE6ECDE0500034613F8012B002ACC
:1026FC00FBD1181A013870471D000A085D000A0842
:10270C0085000A0889000A080000000043686F6F02
:10271C007365204C6576656C2041203D20456173C6
:10272C0079206D6F64652C2042203D204E6F726DB8
:10273C00616C206D6F64652C2043203D20486172D4
:10274C0064206D6F646500FFFFFFFFFFFFFFFFFF5D
:10275C00FFFFFFF0E00000E0000000000070000050
:10276C0070E00000E0000000000070000070E0006D
:10277C0000E0000000000070000070E00000E000CD
:10278C000000000070000070E00000E0000000009D
:10279C000070000070E00000E0000000000070001D
:1027AC000070E00000E0000000000070000070E02D
:1027BC000000600000F0000060000070E00000000D
:1027CC000000F0000000000000E00000000000F03D
:1027DC00000000000000E00000000000F00000001D
:1027EC00000000E00000000000F00000000000000D
:1027FC00E00000000000F0000000000000E000001D
:10280C00000000F0000000000000F7FFFF000000D7
:10281C00F000003FFFFF801FFFFDE00000F0000014
:10282C003FFFFEF0000000E00000F00000000000A0
:10283C0070000000E00000F00000000000700000DC
:10284C0000E00000F0000000000070000000E0005C
:10285C0000F0000000000070000000E00000F0003C
:10286C000000000070000000E00000F0000000001C
:10287C000070E00000E00000FFFFFFE0000070E0EF
:10288C000000000000F0000000000070E0000000FC
:10289C000000F0000000000070E00000000000F0FC
:1028AC00000000000070E00000000000F0000000DC
:1028BC00000070E00000000000F00000000000705C
:1028CC00E00000000000F0000000000070E00000DC
:1028DC00000000F0000000000070FFFFFFFFFFFF92
:1028EC00FFFFFFFFFFFFF007FFFFFFFFFFFFFFFFF3
:1028FC00FFFFFE003FFFFFFFFFFFFFFFFFFFFFFF9C
:10290C00C03C00000000000000001E0001C0383F69
:10291C00FFFFF07FFFFFFC1FFFC1C0383C0000F041
:10292C0000003C000003C1C038383FFFFFFFFFFF31
:10293C00FFFFC1C1C038387FFFFFFFFFFFFFFFE182
:10294C00C1C038387800000000000001E1C1C03877
:10295C0038787FFFFF81FFFFE1E1C1C0383878781C
:10296C000003C00001E0C1FFC0383878783F03FF96
:10297C00FFFFE001FFC0383878007F83FFFFFFFFC7
:10298C00C1C1C01838783078001E0001E1FFC1C009
:10299C0000787878787FFFE0E1E0FFC1C03FF878FD
:1029AC0078787801E1E1E001C1C03C787878782052
:1029BC000001E1E1C001C03D7DF87878200001E123
:1029CC00E1E1FFC03FFFF878787800E1E1E1E1FF59
:1029DC00C000007878787FFFE1E0C1E1C1C0183019
:1029EC00787878000001E001E1C1C0383878787F50
:1029FC00FFFFFFE1FFE1C1C0383FF8783FFFFFFF69
:102A0C00C1E1E00000383FF878000003C001E1E0CC
:102A1C00C0003838387FFFFF83FFFFE1E1C000388A
:102A2C00380000000000000001FFC1C03838003F32
:102A3C00FFFFFFFFFFFFFFC1C03838003FFFFFFF64
:102A4C00FFFFFFC1C1C0383C0000000000000000C7
:102A5C0003E3C0383FFFFFFFFFF83FFFFFFFFFC05E
:102A6C003C0000000000000000000001C03FFFFF20
:102A7C00FFFFFFFFFFFFFFFFFFC007FFFFFFFFFF91
:102A8C00FFFFFFFFFFFE0000000000000000000041
:102A9C00000000000000000000000000000000002A
:102AAC00000000000000000000000000000000001A
:102ABC00000000000000000000000000000000000A
:102ACC0003F000000000000000000000003FFF8049
:102ADC0000000000000000000007FFFFFC000000E9
:102AEC00000000000000FFFFFFFFE00000000000FE
:102AFC0000000FFFFFFFFFFE00000000000001FFC1
:102B0C00FFFFFFFFFFF000000000003FFFFFFFFF93
:102B1C00FFFFFF0000000003FF803FFFFF8000006D
:102B2C00180000001FFF803FFFFF8000001F800087
:102B3C00001FFF803FF000F00001FF8000001FFF2E
:102B4C00803F00001FC01FFF8000001FFF803E0061
:102B5C00F007C03FFF8000001FFF803C03F803C05C
:102B6C003FFF8000001FFF803C03F803C03FFF8045
:102B7C0000001FFF803C01F007C03FFF8000001FDA
:102B8C00FF803E00000FC03FFF80000003FF803F2E
:102B9C00C0007FC03FFC000000003FFFFFFFFFFFB5
:102BAC00FFFFC00000000001FFFFFFFFFFFFF80068
:102BBC0000000000000FFFFFFFFFFF0000000000FF
:102BCC00000000FFFFFFFFF000000000000000000D
:102BDC0007FFFFFE000000000000000000003FFFA8
:102BEC00C00000000000000000000003FC0000001A
:102BFC0000000000000000000000000000000000C9
:102C0C0000000000000000000000000000000000B8
:102C1C0000000000000000000000000000000000A8
:102C2C000000000000000000000000000000000098
:102C3C0000000000003FFFFFFFFFFFFFFFFFFFC092
:102C4C0000007FFFFFFFFFFFFFFFFFFFE0000078AA
:102C5C00000000000000000001E00000780000000F
:102C6C00000000000001E0000078000000000000FF
:102C7C00000001E0000078000000000000000001EE
:102C8C00E0000078000FFFFFFFFFF00001E0000004
:102C9C0078001E00000000000001E0000078001E1B
:102CAC0000000000000001E0000000001E000FFF0B
:102CBC00FFFFF801E0000000001E0007FFFFFFF817
:102CCC0001E0000000001E00000000007801E000A0
:102CDC000000001E00000000007801E000007800F9
:102CEC001FFFF00780007801E0000078001FFFF064
:102CFC000780007801E0000078001E0000078000CB
:102D0C003801E0000078001E00000780380001E068
:102D1C00000078001E000007803C0001E0000078F5
:102D2C00001E000007803FFFFFE0000078001E003F
:102D3C000007803C00000000007FFE1E01FFFF80AA
:102D4C003800000000007FFE1E03C0E78038000042
:102D5C0000000078001E03C007803800000000004F
:102D6C0078001E03C00780380001E0000078001EC8
:102D7C0003C00780380001E0000078001E018007C6
:102D8C0080000001E0000078001E000007800000B9
:102D9C0001E0000078001E00000780000001E00048
:102DAC00007FFFFFFFFFFFFFFFFFFFE000003FFF83
:102DBC00FFFFFFFFFFFFFFFFC0000000000000004F
:102DCC000000000000000064656661756C742000F2
:102DDC004D5342004C5342003C535049536574745C
:102DEC00696E67732064656661756C743E003C5354
:102DFC00504953657474696E67732025732575206B
:102E0C002573204D4F444525753E00000000000001
:102E1C003E5B4F5B3E3E6B4F6B3E1C3E7C3E1C183C
:102E2C003C7E3C181C577D571C1C5E7F5E1C00189A
:102E3C003C1800FFE7C3E7FF0018241800FFE7DB8E
:102E4C00E7FF30483A060E2629792926407F0505EA
:102E5C0007407F05253F5A3CE73C5A7F3E1C1C0827
:102E6C00081C1C3E7F14227F22145F5F005F5F06EC
:102E7C00097F017F006689956A606060606094A23A
:102E8C00FFA29408047E040810207E201008082A53
:102E9C001C08081C2A08081E101010100C1E0C1EF2
:102EAC000C30383E3830060E3E0E06000000000096
:102EBC0000005F00000007000700147F147F14243B
:102ECC002A7F2A12231308646236495620500008C0
:102EDC00070300001C2241000041221C002A1C7F19
:102EEC001C2A08083E0808008070300008080808F2
:102EFC0008000060600020100804023E5149453E65
:102F0C0000427F400072494949462141494D3318DE
:102F1C0014127F1027454545393C4A494931412116
:102F2C001109073649494936464949291E000014FA
:102F3C000000004034000000081422411414141442
:102F4C0014004122140802015909063E415D594EF4
:102F5C007C1211127C7F494949363E414141227F06
:102F6C004141413E7F494949417F090909013E419F
:102F7C004151737F0808087F00417F410020404188
:102F8C003F017F081422417F404040407F021C02D9
:102F9C007F7F0408107F3E4141413E7F09090906AD
:102FAC003E4151215E7F0919294626494949320380
:102FBC00017F01033F4040403F1F2040201F3F4006
:102FCC0038403F63140814630304780403615949BF
:102FDC004D43007F41414102040810200041414112
:102FEC007F040201020440404040400003070800F7
:102FFC0020545478407F284444383844444428387A
:10300C004444287F385454541800087E090218A4EC
:10301C00A49C787F0804047800447D400020404044
:10302C003D007F1028440000417F40007C04780460
:10303C00787C080404783844444438FC1824241858
:10304C0018242418FC7C0804040848545454240400
:10305C00043F44243C4040207C1C2040201C3C402D
:10306C0030403C44281028444C9090907C4464544C
:10307C004C4400083641000000770000004136083F
:10308C000002010204023C2623263C1EA1A161126F
:10309C003A4040207A38545455592155557941229B
:1030AC0054547842215554784020545579400C1E84
:1030BC00527212395555555939545454593955542D
:1030CC0054580000457C410002457D420001457C7E
:1030DC00407D1211127DF0282528F07C54554500B6
:1030EC002054547C547C0A097F4932494949323A6C
:1030FC004444443A324A4848303A4141217A3A42AF
:10310C00402078009DA0A07D3D4242423D3D404084
:10311C00403D3C24FF2424487E4943662B2FFC2F42
:10312C002BFF0929F620C0887E09032054547941CD
:10313C000000447D413048484A32384040227A00F1
:10314C007A0A0A727D0D19317D2629292F28262904
:10315C0029292630484D4020380808080808080856
:10316C0008382F10C8ACBA2F102834FA00007B0096
:10317C000008142A142222142A140855005500554C
:10318C00AA55AA55AAFF55FF55FF000000FF0010D5
:10319C001010FF00141414FF001010FF00FF10108B
:1031AC00F010F0141414FC001414F700FF0000FFCE
:1031BC0000FF1414F404FC141417101F10101F102B
:1031CC001F1414141F00101010F0000000001F102A
:1031DC001010101F10101010F010000000FF101035
:1031EC0010101010101010FF10000000FF14000041
:1031FC00FF00FF00001F10170000FC04F41414174C
:10320C0010171414F404F40000FF00F71414141431
:10321C00141414F700F7141414171410101F101FA3
:10322C00141414F4141010F010F000001F101F00F0
:10323C0000001F14000000FC140000F010F010102F
:10324C00FF10FF141414FF141010101F00000000C6
:10325C00F010FFFFFFFFFFF0F0F0F0F0FFFFFF00BA
:10326C0000000000FFFF0F0F0F0F0F3844443844CD
:10327C00FC4A4A4A347E02020606027E027E026341
:10328C00554941633844443C04407E201E200602CC
:10329C007E020299A5E7A5991C2A492A1C4C7201A9
:1032AC00724C304A4D4D303048784830BC625A46EA
:1032BC003D3E494949007E0101017E2A2A2A2A2ADB
:1032CC0044445F444440514A444040444A514000C5
:1032DC0000FF0103E080FF000008086B6B0836124A
:1032EC00362436060F090F060000181800000010CF
:1032FC0010003040FF0101001F01011E00191D17B5
:10330C0012003C3C3C3C00000000000000000000AF
:10331C000000000000000000000000000D0A0A0878
:10332C00211C0A08A1000A0841040A0843040A08DF
:10333C0073040A084F040A0861040A0885030A0882
:10334C0041040A0869060A08E5050A088B040A08FC
:10335C00C9040A0803050A0849050A08E7050A080A
:10336C0065050A0800000000000000001D0B0A089B
:10337C003D0B0A080D0A0A08211C0A084D0D0A0803
:10338C0041040A0843040A0873040A084F040A0893
:10339C0061040A0885030A0841040A0869060A0838
:1033AC00170F0A08AF140A0861140A0803050A0863
:1033BC0049050A08E7050A0865050A080000000027
:1033CC000000000031030A08F5020A08F7020A0897
:1033DC000000000000018000000000000000000060
:1033EC00038000000000000000000007C000000087
:1033FC0000000000000007C00000000000000000FA
:10340C00000FC00000000000000000001FE00000E2
:10341C00000000000000001FE000000000000000A1
:10342C0000003FE00000000000000000003FF00042
:10343C0000000000000000007FF000000000000011
:10344C00001FF87FF0000000000000003FFE7FF03E
:10345C00000000000000003FFF7FF00000000000B3
:10346C0000001FFFFBE0000000000000000FFFF950
:10347C00FFC00000000000000FFFF9FFF800000083
:10348C0000000007FFF1FFFF00000000000003FC3C
:10349C0073FFFF80000000000001FE3FFFFF800073
:1034AC000000000000FF1E0FFF00000000000000E5
:1034BC007FFE1FFC000000000000003FFFFFF80033
:1034CC000000000000000FDFFFE000000000000023
:1034DC00001F19FFC0000000000000003F3CFF006F
:1034EC00000000000000007E7CF8000000000000DE
:1034FC0000007FFE7C0000000000000000FFFFFCCD
:10350C000000000000000000FFFFFE0000000000B3
:10351C00000000FFFFFE0000000000000001FFEFB4
:10352C00FE0000000000000001FFCFFE00000000C4
:10353C0000000003FF07FE0000000000000003FC79
:10354C0007FE0000000000000003F003FE00000076
:10355C0000000000018000FE0000000000000000E0
:10356C0000007E000000000000000000003E000093
:10357C0000000000000000000C000000000000072C
:10358C008000FC000003C0000000078001FC00006C
:10359C0003C0000000078001FC000003C000000015
:1035AC00078001E00000001E000000078001E00021
:1035BC0000001E007FE3F79FF9FDE7787BDFC0FF7B
:1035CC00F7FFBFFDFDFF787BDFC0FFF7FFBFFDFD01
:1035DC00FF787BDFC0F0F787BC3DE1FF787BDE0036
:1035EC00F0F787BC3DE1F0787BDE0000F787803D8B
:1035FC00E1E0787BDE007FF7879FFDE1E0787BDE02
:10360C0000FFF787BFFDE1E0787BDE00F0F787BCB9
:10361C003DE1E0787BDE00F0F787BC3DE1E0787BB4
:10362C00DE00F0F787BC3DE1E0787BDE00FFF7FFC2
:10363C00BFFDE1E07FFBDFC0FFF7FFBFFDE1E07FF7
:10364C00FBDFC07CF3F39F3DE1E03E7BCFC000008D
:10365C00000000000000000000FFFFFFFFFFFFFF65
:10366C00FFFFFFC0FFFFFFFFFD68DB111A31C0FF3A
:10367C00FFFFFFFD2B5AFB6AEFC0FFFFFFFFFD4B67
:10368C005B3B1A33C0FFFFFFFFFD6B5BDB6AFDC0CA
:10369C0000006000000000000000000000000000BE
:1036AC0000E000000000000000000000000000012D
:1036BC00E00000000000000000000000000001F02D
:1036CC000000000000000000000000000003F000FB
:1036DC0000000000000000000000000007F00000E7
:1036EC00000000000000000000000007F8000000CF
:1036FC00000000000000000000000FF800000003B4
:10370C00C0007E000001E0007F0FF800000003C045
:10371C0000FE000001E000FFEFF800000003C00015
:10372C00FE000001E000FFFFF800000003C000F005
:10373C000000000F007FFE7FC0000003C000F000FF
:10374C0000000F003FFE7FF83FF1FBCFFCFEF3BC07
:10375C003DEFE01FFE7FFF7FFBFFDFFEFEFFBC3D6A
:10376C00EFE01FC6FFFF7FFBFFDFFEFEFFBC3DEF60
:10377C00E00FE3C7FE787BC3DE1EF0FFBC3DEF001D
:10378C0007FF87FC787BC3DE1EF0F83C3DEF0001A1
:10379C00FFFFF0007BC3C01EF0F03C3DEF0001F3D7
:1037AC007FE03FFBC3CFFEF0F03C3DEF0003E33F77
:1037BC00807FFBC3DFFEF0F03C3DEF0007E73C00F1
:1037CC00787BC3DE1EF0F03C3DEF0007FFBE0078B7
:1037DC007BC3DE1EF0F03C3DEF0007FFFE00787B64
:1037EC00C3DE1EF0F03C3DEF000FFFFE007FFBFF41
:1037FC00DFFEF0F03FFDEFE00FFFFF007FFBFFDF90
:10380C00FEF0F03FFDEFE00FF9FF003E79F9CF9E9F
:10381C00F0F01F3DE7E01FF1FF000000000000008A
:10382C0000000000001F80FF007FFFFFFFFFFFFF75
:10383C00FFFFFFE01C007F007FFFFFFFFEB46D88E1
:10384C008D18E000001F007FFFFFFFFE95AD7DB5DA
:10385C0077E000000F007FFFFFFFFEA5AD9D8D19E7
:10386C00E0000006007FFFFFFFFEB5ADEDB57EE08A
:10387C000000000000000000210D0A08390D0A08A4
:10388C000D0A0A08211C0A084D0D0A0841040A08F1
:10389C0043040A0873040A084F040A0861040A085E
:1038AC0085030A0841040A0869060A08170F0A0862
:1038BC00AF140A0861140A0803050A0849050A0826
:1038CC00E7050A0865050A080080C0E0F0F8FCFE70
:1038DC00000103070F1F3F7FAED580A8D300408D9A
:1038EC002000A1C8DB40A4A62EAFDA02818FDA1229
:1038FC0081DA02812200FF210000081018202830F4
:10390C00386170700025592D256D2D25645425487E
:10391C003A254D3A2553257A0061736374696D65B8
:10392C00000000000000000000000000111F0A0849
:10393C00011F0A08031F0A08000000000000000015
:10394C00CD1F0A0833200A080B200A08211C0A087C
:10395C00FD1F0A08CF1F0A08DF1F0A082D200A08BE
:10396C00EF1F0A08C91F0A08000000000000000031
:10397C0069210A08D1210A08AD210A08211C0A086C
:10398C007D210A0899210A088B210A08A7210A0817
:10399C006B210A086F210A080000000000000000DB
:1039AC005D220A08A7220A087F220A085F220A0859
:1039BC0087220A088F220A0897220A089F220A08DF
:1039CC0000000000000000009F230A0895230A084D
:1039DC008B230A0809230A08431D0A087F230A08B7
:1039EC00FD230A0805240A0873230A086B230A0816
:1039FC0061230A0857230A0813230A080000000051
:103A0C0000000000BD230A08C7230A08D1230A08B6
:103A1C00DB230A08E5230A08F1230A08FD230A0818
:103A2C0005240A080D240A0819240A0821240A0866
:103A3C002B240A0835240A080000000031010A086A
:103A4C00E51B0A08511D0A08611D0A08991D0A0880
:103A5C00A9230A0885240A08A1250A0800000000E9
:043A6C000000000056
:043A70000000000052
:103A7400010000000A0000000A00000025390A08BD
:103A840014000020000000000000000000000000FE
:103A94000000000000000000000000000000000022
:103AA4000000000000000000000000000000000012
:103AB4000000000000000000000000000000000002
:103AC40000000000000000000000000000000000F2
:103AD40000000000000000000000000000000000E2
:043AE40000000000DE
:103AE800FFFFFFFF00000102030405060708090A9B
:103AF8000B0C0D0E0F101112131415161718191A96
:083B08001B1C1D1E1F202800DC
:043B1000785634129D
:04000005080A001CC9
:00000001FF
